:10B2AE0075BB2075B3DF75B4201237C612BDB4124C
:10B2BE00BEA512BEBC12C06712BF1412C0851255B5
:10B2CE00CF7F0112BEE812BD6712C08B7EA37FAB8B
:10B2DE00C25E7B057A00E4FDFC12B9517EBE7FD2C0
:10B2EE00D25E7B647A007D057C0012B9517E9E7F12
:10B2FE00AFC25E7BDF7A037D287C0012B9517E7768
:10B30E007F38C25E7D3312B3677E7A7FBEC25E7DAA
:10B31E003412B3677E7D7FBDC25E7D3512B3717E02
:10B32E00807FAFC25E7D3612B3717E837FA1C25E17
:10B33E007D3712B37B7E867F93C25E7D3812B37BE0
:10B34E007E897F78C25E7B317A007D397C0012B9AE
:10B35E005112C08812BA5080FB7B317A007C0012E9
:10B36E00B951227B317A007C0012B951227B317A9D
:07B37E00007C0012B951220E
:10BBDF00EF75F008A42452F822E52C75F008A42282
:10BBEF00E53075F008A42458F822C3940B748094A0
:10BBFF008022E6FE08E6AA06F9028E09E4F608F6A8
:06BC0F00EF75F008A4220D
:10BD6700E4F530E53012BBF95009AF3012BD3B05A1
:10BD77003080F0438E805389F0438901758ACD75F1
:06BD87008CD4C28DD28CA9
:01BD8D002293
:03C08500D2AF2215
:03000B0002B385B8
:10B38500C0E0C0F0C083C082C0D075D000C000C08E
:0DB3950001C002C003C004C005C006C0070F
:10B3A200C28DC28C758ACD758CD4D28C752C00E579
:10B3B2002C12BBF9507812BBE82453F8E618466009
:10B3C2006812BBE82455F9E71947705112BBE8240B
:10B3D20059F8E6600912BBE82458F8068024E52CE7
:10B3E20012BBE012BC0112BBE82458F81612BBE8EB
:10B3F2002457F9E71947700AE52C12BBE0760008DA
:10B40200760012BBE82456F8E6FE08E6FF4E601905
:10B4120012BBE82454F8A60608A607800C12BBE863
:0EB422002455F8E61618700116052C02B3B179
:10B43000D007D006D005D004D003D002D001D00070
:0BB44000D0D0D082D083D0F0D0E0321A
:10BA5000E4F530C3E53012BBFA5040E53075F0082C
:10BA6000A42459F8E6603012BBEFE6D3940074804A
:10BA700094804023E53012BBE012BC0112BBEF16EC
:10BA8000E53075F008A42457F9E719477009E53047
:0BBA900012BBE0E4F608F6053080B8B9
:01BA9B002288
:04B951008E308F3174
:10B95500E4FF12BBDFE6F58308E645836009EF12D5
:10B96500BBF950030F80EBEF640B70037F0B2212C2
:10B97500BBDFA63008A631EF75F008A42454F8A65D
:10B985000408A605EF75F008A42456F8A60208A633
:10B9950003A25EE433FEEF75F008A42459F8A60669
:06B9A500EF12BBF1E4F615
:01B9AB002279
:10BD3B0012BBDFE6FC08E64C7004D25E8002C25EEA
:10BD4B0012BBDF12BC0B2454F812BC0B2456F8E4C4
:0BBD5B00F608F6EF12BBF1E4F6A25E62
:01BD660022BA
:03C08800D2A92218
:03C08B00C2A92225
:0AC03B0000007F367EC6DEFEDFFC4B
:01C0450022D8
:0AC0460000007FA27E5ADEFEDFFC40
:01C0500022CD
:0C000E007F037E1A7DDFDDFEDEFCDFFAE2
:01001A0022C3
:0CBFEE007F057E347DC3DDFEDEFCDFFA43
:01BFFA002224
:0CBFFB007F2B7E067DCBDDFEDEFCDFFA36
:01C007002216
:10BB26002020200020202020001F1F0000000000F1
:10BB3600000000000000001F1F1F1F000000001F64
:10BB46001F1F1F001F1F001F1F00000707070700FA
:10BB56000000001C1C1C1C0000000000000000006F
:01BB660000DE
:10721D00013B00013A04014009013F0D013C000111
:10722D003900013800023D0000C159C1D84D03C9D4
:0D723D00001F1C1F1E1F1E1F1F1E1F1E1FD7
:10B64C0075F00A128C5DFF75F00A128C5DAFF0EF8D
:10B65C002430222402FD7534FF7535BB75365F7BB3
:10B66C0006227C007D0A128CF9ED2430A3F07D0AB1
:10B67C00AE47AF487C00028CF92402FD7534FF758F
:10B68C0035BB75362FE4FB222402FD7534FF75356E
:10B69C00BB75363F7B0222AF39EF3395E0FEEF22CC
:10B6AC0004FD7534FF7535BB7536377B0122AE470B
:10B6BC00AF487D64028CF9E53C75F002128C5DAFED
:10B6CC00F0EF3395E04F227534FF7535BB75364F6F
:03B6DC007B0422CA
:108F32008F30EDB40A004003029041908F44F8282C
:108F42002873028F62028F6E028F95028FA4028FA6
:108F5200B3028FD2028FE30290000290200290337C
:108F62001290FB12B68512913E028FEBE53004128D
:108F7200B6877F011291BF1291F5240312B66112D6
:108F820091F512B6AC7F021291BF1291D312B6B113
:108F920002903C12909612916A1291D312B69A02E2
:108FA200903CE530041291AB12B6941290420290BA
:108FB2003C1290FB12B65F12913E1291FD12B687DF
:108FC2007F0212B9ACE53012B68512915402903C80
:108FD20012911224031291AB12B6AC1290D00290ED
:108FE2003C129112240312B6961291FDFD7534FFC4
:108FF2007535BB7536477B031290D002903C1290B8
:10900200967F0112B9ACE5300412B6617F0212B943
:10901200ACE53012B65F7F021291E102903C1291F0
:109022009412B6947F011291E112916A12915480C6
:109032000912919412B6851290427F0212B9AC22A3
:109042007F0112B9ACE5302403FD7534FF7535BBE1
:109052007536477B037F0112B9ACE53004FD7534E8
:10906200FF7535BB75363F7B027F0212B9ACE53026
:109072002402FD7534FF7535BB75363F7B027F02D6
:1090820012B9ACE5302403FD7534FF7535BB753676
:10909200477B0322E53004FD7534FF7535BB753619
:1090A2002FE4FB7F0112B9ACE5302402FD7534FFD9
:1090B2007535BB75362FE4FB7F0112B9ACE5302460
:1090C20003FD7534FF7535BB7536477B03227F027E
:1090D20012B9ACE5302402FD7534FF7535BB753627
:1090E200377B017F0212B9ACE5302403FD7534FFF2
:1090F2007535BB7536477B0322E53004FD7534FFB9
:109102007535BB7536477B037F0112B9ACE530225A
:10911200E53004FD7534FF7535BB7536477B037F3B
:109122000112B9ACE5302402FD7534FF7535BB750B
:10913200363F7B027F0112B9ACE530227F0112B9C2
:10914200ACE5302403FD7534FF7535BB7536477BBE
:1091520003227F0212B9ACE5302403FD7534FF759A
:1091620035BB7536477B03227F0112B9ACE530046B
:10917200FD7534FF7535BB7536477B037F0212B927
:10918200ACE5302402FD7534FF7535BB75363F7B87
:109192000222E53004FD7534FF7535BB7536477B19
:1091A200037F0112B9ACE53022FD7534FF7535BB82
:1091B20075363F7B027F0112B9ACE5302212B9ACA1
:1091C200E5302402FD7534FF7535BB7536477B03E8
:1091D200227F0212B9ACE5302403FD7534FF22125E
:1091E200B9ACE5302403FD7534FF7535BB753647E0
:1091F2007B03227F0112B9ACE530227F0112B9ACA8
:04920200E53004222D
:109EAF00AE47AF487C017D90128CF9ED4C60117D6F
:109EBF000412B67CED4C7010FC12B6BAED4C600873
:109ECF009003CB741DF080069003CB741CF03058B8
:109EDF001912B6C3601412B6A3643B4E700CAF38A0
:109EEF0012B6A5643B4E7002801C30581D12B6C3CB
:109EFF00701812B6A3643B4E7010AF3812B6A5643B
:109F0F003B4E700615381538C258B2590538AF3860
:109F1F0012B6A5643C4E705ED258F538053912B6AC
:109F2F00A3643C4E7050F539053CAF3C12B6A564A6
:109F3F00184E7042F53C0549AF46EF3395E0FE747D
:109F4F00C92FF58274033EF583E0FFAD49ED3395DC
:109F5F00E0FCD3ED9F7480F86C98401A75490105A9
:109F6F0046AF4612B6A5640D4E700B7546010548F7
:109F7F00E54870020547AF3CEF3395E0FE7C007D6E
:109F8F003C128CE7AD39ED3395E0FCEF2DF53EEE4D
:109F9F003CF53DAE47AF487C037DE8128CF97C0061
:109FAF007D0A128CF9ED2430900221F07C0012B65C
:109FBF00BA12B66E12B66EED2430A3F0E54612B6A5
:109FCF004C900226F0E54612B653900227F0E54971
:109FDF0012B64C900229F0E54912B65390022AF0BE
:109FEF00E53C12B64C90023FF0E53C12B65390029E
:109FFF0040F0E53912B64C900242F0E53912B653F3
:10A00F00900243F0E53812B64C900245F0E5381255
:07A01F00B653900246F02247
:10B44B00E53975F00A128C5DFDAF40128F32E5398C
:10B45B0075F00A128C5DADF0AF3F12B4E2FDAF3B5D
:10B46B0012B4E2ADF0AF3A128F3212B6627D047FA6
:10B47B000112B9AC12B6627D0D7F0112B9AC12B6D6
:10B48B00627D047F0212B9AC12B6627D0D7F02128F
:10B49B00B9AC30591E12B6D37D087F0112B4EE7FC2
:10B4AB000212B9AC12B6627D097F0112B9AC12B6A9
:10B4BB0062801C12B6627D087F0112B9AC12B662B3
:10B4CB007D097F0212B4EE7F0112B9AC12B6D37DA7
:10B4DB00087F0212B9AC22128F32E53C75F00A12CA
:10B4EB008C5D2212B9AC7534FF7535BB7536577B45
:04B4FB00057D0922A0
:10BA9C007D0112BACA7D0112BAD87D0E12BACA7DC6
:10BAAC000D12BAD87B017A0279217D047F0112B87C
:10BABC00E37B017A02793F7D057F0202B8E37BFFCD
:10BACC007ABB79267F0112B8E37BFF227ABB792AF5
:06BADC007F0212B8E32214
:10BEBC00438E4053890F438910758B66758DEAC28A
:06BECC008FD28EC2AB22F2
:0DC00800C28FC28E758B66758DEAD28E22B6
:106BD6003E3E205441534B53204354524C203C3CA0
:106BE600003E3E205441534B532053455420203CF5
:106BF6003C003E3E2020504F525420534554202006
:106C06003C3C003E3E202054494D452053455420EF
:106C1600203C3C003E3E20205749464920534554DF
:106C260020203C3C003E3E20202052455455524EEA
:106C36002020203C3C002020205441534B5320432D
:106C460054524C202020002020205441534B5320E6
:106C5600534554202020200020202020504F5254FD
:106C66002053455420202020002020202054494D28
:106C7600452053455420202020002020202057491D
:106C86004649205345542020202000202020202043
:106C960052455455524E2020202020003E3E20537F
:106CA600595320524553455420203C3C0020202077
:106CB6005359532052455345542020202000535900
:106CC6005354454D205245534554203F3F3F003EC7
:106CD6003E20594553203C3C20204E4F202020008A
:106CE60020202059455320203E3E204E4F203C3C3C
:106CF600003E3E202052554E205441534B31203CFD
:106D06003C002020202052554E205441534B312028
:106D16002020003E3E2053544F50205441534B31C7
:106D2600203C3C0020202053544F50205441534BCC
:106D360031202020003E3E202052554E2054415303
:106D46004B32203C3C002020202052554E205441FE
:106D5600534B32202020003E3E2053544F502054A7
:106D660041534B32203C3C0020202053544F5020AE
:106D76005441534B32202020003E3E202052554E97
:106D8600205441534B33203C3C00202020205255B8
:106D96004E205441534B33202020003E3E20535476
:106DA6004F50205441534B33203C3C00202020536D
:106DB600544F50205441534B33202020003E3E2058
:106DC6002052554E205441534B34203C3C00202049
:106DD600202052554E205441534B34202020003E53
:106DE6003E2053544F50205441534B34203C3C00DA
:106DF60020202053544F50205441534B3420202000
:106E0600003E3E202052554E205441534B35203CE7
:106E16003C002020202052554E205441534B352013
:106E26002020003E3E2053544F50205441534B35B2
:106E3600203C3C0020202053544F50205441534BBB
:106E460035202020003E3E202052554E20544153EE
:106E56004B36203C3C002020202052554E205441E9
:106E6600534B36202020003E3E2053544F50205492
:106E760041534B36203C3C0020202053544F502099
:106E86005441534B36202020002020202020202053
:106E9600202020202020202020003E3E2054415348
:106EA6004B312053455420203C3C003E3E2054416B
:106EB600534B322053455420203C3C003E3E205448
:106EC60041534B332053455420203C3C003E3E204A
:106ED6005441534B342053455420203C3C003E3E05
:106EE600205441534B352053455420203C3C003E12
:106EF6003E205441534B362053455420203C3C0001
:106F06002020205441534B3120534554202020202B
:106F1600002020205441534B32205345542020203A
:106F260020002020205441534B3320534554202029
:106F36002020002020205441534B34205345542018
:106F4600202020002020205441534B352053455407
:106F560020202020002020205441534B362053452A
:106F660054202020200020205452494747455220D3
:106F76004D4F44453A300020205452494747455228
:106F8600204D4F44453A3100202054524947474549
:106F960052204D4F44453A200020002020204D41EC
:106FA6004E55414C20534554202020003E3E204D56
:106FB600414E55414C20534554203C3C0020202056
:106FC600204155544F2053455420202020003E3E5A
:106FD60020204155544F2053455420203C3C003E30
:106FE6003E202054435020504F525420203C3C0019
:106FF6002020202054435020504F5254202020203F
:10700600005443502053455256455220504F525437
:107016003A003E3E20202053544120495020202053
:107026003C3C002020202020535441204950202061
:1070360020202000535441204950204144445245C9
:1070460053533A20003E3E202020204150204950F4
:107056002020203C3C002020202020204150204998
:1070660050202020202000415020495020414444F7
:10707600524553533A2020004175746F526573652B
:10708600742D2D2D3E4F4E20004175746F52657341
:1070960065742D2D2D3E4F4646004175746F526521
:1070A6007365742D2D2D3E2020200000050106FF5E
:1070B600BF290100020DFFBF3C02010314FFBF4FB1
:1070C60003020425FFBF6204033328FFBF7505339F
:1070D6000005FFC06F060C0706FFBC15070608076C
:1070E600FFBC4608070908FFBC7709080A09FFBC68
:1070F600A80A090B0AFFBCD90B0A0C0BFFBD0A0C28
:107106000B0600FF001E0D130E2CFFBE8E0E0D0F7C
:107116002CFFBE5E0F0E102CFFBDFA100F112CFFB8
:10712600BE131110122CFFBE2C1211132CFFBE45DC
:1071360013120D01FF000314241514FFA77A15146A
:107146001615FFA86916151716FFA958171618174A
:10715600FFAA4718171918FFAB3619181A19FFACEA
:10716600251A191B1AFFAD141B1A1C1BFFAE031C94
:107176001B1D1CFFA5981D1C1E1DFFAEF21E1D1F0C
:107186001EFFAFE11F1E201FFFB0D0201F2120FFD2
:10719600B1BF21202221FFA68922212322FFA2B2EC
:1071A60023222423FFA4A224231402FFC07D252723
:1071B6002625FF970E26252726FFBDD82726250339
:1071C600FFC081282B2928FF9B4429282A29FFBB99
:1071D600672A292B2AFFBBA32B2A2804FFBF882C4A
:1071E600322D2CFF92062D2C2E2DFF948A2E2D2F1C
:1071F6002EFF1B002F2E302FFFA17C302F3130FFAA
:10720600297531303231FF002632312C32FFC076FB
:0772160033040533FFB7F05C
:10724A00011700011800010900C15A0108000116BE
:10725A0000C15B5002693E3E50494E20202D2D3E12
:10726A005441534B3A005002793E3E50494E202039
:10727A003C2D2D5441534B3A005002593E3E504941
:10728A004E20202020205441534B3A005103014400
:10729A004154453A323032322F30372F31372000BD
:1072AA0051031254494D453A2030303A30303A3081
:1072BA00302020005102CE2D2D3E20203635353388
:1072CA00352020203C2D2D005102895441534B205A
:1072DA0020537461727454696D653A0051029A546C
:1072EA0041534B20202020456E6454696D653A0055
:1072FA005102BC5441534B2020204F766572546989
:10730A006D653A005102DF5441534B202020202062
:10731A004F6E54696D653A005102AB5441534B208C
:10732A002020204F666654696D653A005102F020AC
:10733A00202030303A303020202020202020200009
:10734A0051024820303030303A30303A30303A301A
:10735A00302020004102CD0001AA0001AC0001AE9C
:10736A000001B00001B20001B40001B50001B7008C
:10737A0001AB0001AD0001AF0001B10001B3000192
:08738A00B60001B80001B900D2
:1044D400AB19AA1AA91B9000047431128CC5E47B91
:1044E4000AFAF9F890037DE0FCA3E0FDA3E0FEA343
:1044F400E0FF12BAE2E47B3CFAF9F812BAE2E47B98
:104504003CFAF9F812BAE2E47B02FAF9F812BAE2D8
:10451400E47BE87A03F9F812BAE2E47B0AFAF9F8E0
:1045240012BAE2EB2430900249F0E47B0AFAF9F87B
:1045340090037DE0FCA3E0FDA3E0FEA3E0FF12BA3C
:10454400E2E47B3CFAF9F812BAE2E47B3CFAF9F8CB
:1045540012BAE2E47B02FAF9F812BAE2E47B64FAF2
:10456400F9F812BAE2E47B0AFAF9F812BAE2EB2497
:104574003090024AF0E47B0AFAF9F890037DE0FCFB
:10458400A3E0FDA3E0FEA3E0FF12BAE2E47B3CFA61
:10459400F9F812BAE2E47B3CFAF9F812BAE2E47BE5
:1045A40002FAF9F812BAE2E47B0AFAF9F812BAE26A
:1045B400E47B0AFAF9F812BAE2EB243090024BF0E9
:1045C400E47B0AFAF9F890037DE0FCA3E0FDA3E0A4
:1045D400FEA3E0FF12BAE2E47B3CFAF9F812BAE275
:1045E400E47B3CFAF9F812BAE2E47B02FAF9F81235
:1045F400BAE2E47B0AFAF9F812BAE290024CEB242C
:1046040030F090037DE47B0AFAF9F8E0FCA3E0FDC6
:10461400A3E0FEA3E0FF12BAE2E47B3CFAF9F8124D
:10462400BAE2E47B3CFAF9F812BAE27B02E4FAF962
:10463400F802BAE290024FEB2430F07B0AE49003D4
:104644007DFAF9F8E0FCA3E0FDA3E0FEA3E0FF227D
:10465400900249EB2430F0E47B0AFAF9F822900343
:104664007DE0F8A3E0F9A3E0FAA3E090037DFBAFBB
:1046740016EF3395E0FEEF25E0FFEE33FE3395E0D1
:10468400FDFCEB2FFFEA3EFEE93DFDE83CFC028D1C
:10469400CCC3EF9BFFEE9AFEED99FDEC98FCE47B16
:1046A4000A22900384E0F8A3E0F9A3E0FAA3E090DF
:1046B4000384FBAF16EF3395E0FEEF25E0FFEE3306
:1046C400FE3395E0FDFCEB2FFFEA3EFEE93DFDE8FD
:1046D4003CFC028DCC900389E0F8A3E0F9A3E0FA56
:1046E400A3E0900389FBAF16EF3395E0FEEF25E0DE
:1046F400FFEE33FE3395E0FDFCEB2FFFEA3EFEE9CF
:104704003DFDE83CFC028DCC900391E0F8A3E0F978
:10471400A3E0FAA3E0900391FBAF16EF3395E0FE1C
:10472400EF25E0FFEE33FE3395E0FDFCEB2FFFEACF
:104734003EFEE93DFDE83CFC028DCC900399E0F897
:10474400A3E0F9A3E0FAA3E0900399FBAF16EF33DB
:1047540095E0FEEF25E0FFEE33FE3395E0FDFCEB44
:104764002FFFEA3EFEE93DFDE83CFC028DCC9003C0
:10477400A1E0F8A3E0F9A3E0FAA3E09003A1FBAF62
:1047840016EF3395E0FEEF25E0FFEE33FE3395E0C0
:10479400FDFCEB2FFFEA3EFEE93DFDE83CFC028D0B
:1047A400CCFBAF16EF3395E0FEEF25E0FFEE33FED2
:1047B4003395E0FDFCEB2FFFEA3EFEE93DFDE83CCE
:1047C400FC028DCCFBAF16EF3395E0FEEF25E0FF46
:1047D400EE33FE3395E0FDFCEB2FFFEA3EFEE93DB0
:1047E400FDE83CFC028DCCFBAF16EF3395E0FEEF09
:1047F40025E0FFEE33FE3395E0FDFCEB2FFFEA3EB0
:10480400FEE93DFDE83CFC028DCC90037DEB2FFFDF
:10481400EA3EFEE93DFDE83CFC028DCC900384EBCE
:104824002FFFEA3EFEE93DFDE83CFC028DCC9003FF
:1048340089EB2FFFEA3EFEE93DFDE83CFC028DCC0E
:104844007D14AF16EF3395E0FE7C00128CE7EE3357
:1048540095E0FDFC22E47FFF7EFFFDFC900171E00A
:10486400F8A3E0F9A3E0FAA3E022900391EB2FFF71
:10487400EA3EFEE93DFDE83CFC028DCCE0FEA3E00F
:10488400FF7C007D3C128CF9AA06AB077C007D0AF4
:10489400128CF97C007D0A128CF99002F3ED24301D
:1048A400F07C007D0AAF03AE02128CF9ED243022B5
:1048B400E47B3CFAF9F8028D2F900399EB2FFFEA81
:1048C4003EFEE93DFDE83CFC028DCC751804AF16B4
:1048D400EF3395E0FE227431AB19AA1AA91B90009C
:1048E40004028CC59003A1EB2FFFEA3EFEE93DFDD7
:1048F400E83CFC028DCC7432AB19AA1AA91B9000B7
:1049040004028CC5751901751A02751B6922751983
:1049140001751A02751B79229003A9EB2FFFEA3E59
:10492400FEE93DFDE83CFC028DCC7433AB19AA1AB8
:10493400A91B900004028CC59003B1EB2FFFEA3E43
:10494400FEE93DFDE83CFC028DCCE02516F0E4F5E3
:1049540016E0FF3395E0FEC3EF9401EE648094808B
:10496400227435AB19AA1AA91B900004028CC590B5
:1049740003B5EB2FFFEA3EFEE93DFDE83CFC028D6A
:10498400CC90035AE02FF0900359E03EF0E0FEA3F0
:10499400E0FFC3EE64809480227431AB19AA1AA993
:1049A4001B900005028CC59003B9EB2FFFEA3EFE75
:1049B400E93DFDE83CFC028DCCE47BE87A03F9F8A0
:1049C40012BAE2E47B0A22FDFC7B407A1979017871
:1049D40000028D2FD3EF9400EE6480948022900027
:1049E40006AB13AA14A9157420028CC57513FF75A0
:1049F400146F75156C227513FF75146F75157D2270
:104A04009003BDEB2FFFEA3EFEE93DFDE83CFC02CE
:104A14008DCC7434AB19AA1AA91B900004028CC55E
:104A2400AB13AA14A9157420028CC5D3EF949FEE7E
:104A340064809485229003C1EB2FFFEA3EFEE93D9A
:104A4400FDE83CFC028DCC7518049002CDE024FEF8
:104A540022900003AB13AA14A9157420028CC5E498
:104A64007B02FAF9F8227432AB19AA1AA91B900036
:104A740005028CC575F00A128C5DFF75F00A128C64
:104A84005DAFF0EF243022900001AB13AA14A915F6
:104A94007420028CC5751901751A02751B5922D32D
:104AA400EF9406EE64809480227510FF75116F7583
:104AB400129F227513FF75146F75158E229003C50E
:104AC400EB2FFFEA3EFEE93DFDE83CFC028DCC7590
:104AD4001803E4F51622E4F5187519FF751A6C75B8
:104AE4001B2B7513FF75146E75158F22E02430F699
:104AF400E5086404229000047436AB19AA1AA91BB1
:104B0400028CC5EB243090025222EB2430900254E4
:104B140022E0FAA3E0FB7C007D3CFFAE02128CF99C
:104B24007C007D3C028CE7EB243090024E22EB2487
:104B34003090025122E02430F6E508640422EB248C
:104B44003090024A22EB243090024B22EB24309026
:104B5400024C22EB243090024F2290000CAB13AA9B
:104B640014A9157420028CC5E02430F6E508640409
:104B7400229000027420128CC59000037420128CC1
:104B8400C590000422E02430F6E508640422EB2FEB
:104B9400FFEA3EFEE93DFDE83CFC028DCCE024301A
:104BA400F6E508640422C3EB9FFBEA9EFA7D0AAF94
:104BB40003FE128CF97C007D0A2275130175140220
:104BC400751548E5081422E02430F6E5086404224B
:104BD400AB19AA1AA91B900005028CC59002CDF04E
:104BE4007519FF227510007511007512AA2275102F
:104BF400007511007512AC22751000751100751244
:104C0400AE227510007511007512B0227510007572
:104C140011007512B2227510007511007512B422BC
:104C24007510007511007512B5227510007511000C
:104C34007512B7227510007511007512AB2275102C
:104C4400007511007512AD227510007511007512F2
:104C5400AF227510007511007512B1227510007520
:104C640011007512B3227510007511007512B62269
:104C74007510007511007512B822751000751100B9
:104C84007512B922EB2430F07BE87A03E4F9F8904A
:104C9400017122E4F5187519FF22E02430F6E508C5
:104CA400640422FF3395E0FEC36480948022AB1336
:104CB400AA14A9159000097420128CC590000A2228
:104CC400E4F5189002CD227405F0A3749FF022EB52
:104CD4002430900255F022EB2FFFEA3EFEE93DFD21
:104CE400E83CFC028DCC75F007E517A422AB19AAA9
:104CF4001AA91B22751804E4F51622A3F0AE47AFD7
:104D0400487C00227513017514027515F0E508142A
:104D1400229000067420128CC590000722F583E4CB
:104D240093F51722C3E50894017480948022D3EF8D
:104D3400943BEE648094802290035CE02FF0900317
:104D44005B2290035EE02FF090035D22900360E00D
:104D54002FF090035F22900363E02FF09003622210
:104D6400900367E02FF09003662290036DE02FF02C
:104D740090036C22900371E02FF090037022900353
:104D840075E02FF090037422900378E02FF09003E5
:104D9400772290037CE02FF090037B22900383E042
:104DA4002FF090038222751901751A02751BBC221B
:0A4DB400751901751A02751BAB2278
:10A026000509E50964047004F509B25AE54D24FEF4
:10A03600603614605F2402600302A158E5181460BC
:10A046001014600F14600E24FE600C24057042800C
:10A0560006800480028000124CEA24B2F582E5F004
:10A066003470124D2102A155E51814601014600FCA
:10A0760014600E24FE600C24057016800680048091
:10A08600028000124CEA24B3F582E5F03470124DDA
:10A096002102A155E51814603B14604314606E1448
:10A0A600606F1460702405600302A155AF17EF645A
:10A0B60013600AEF64246005EF642B7007C2AF12C9
:10A0C6005DBAD2AF124CEA24B4F582E5F0347012D0
:10A0D6004D21807BE51724FB7075E4F51E8070E545
:10A0E6001724F960141460151460161460171460B0
:10A0F600182405705AB24C8056B24D8052B24E802A
:10A106004EB24F804AB2508046B251804205088016
:10A116003E0508803AE51764327003125DBA124AAA
:10A126004E601514601714601914601B14601D240A
:10A1360005701C75170D801775170E801275170F91
:10A14600800D75171080087517118003751712E4B6
:10A15600F54D124CEA24B5F582E5F03470F583E44A
:10A1660093FB740193FA740293F98B0D8A0EF50F23
:06A17600128E0902B8740C
:10B87400AF177E00C374809480400AD3EF9413748E
:10B884008094804016C3EF9424EE64809480401228
:10B89400D3EF9433EE648094805007124CF17D0111
:10B8A400802AAF177E00C3EF941474809480402ED6
:10B8B400D3EF9423748094805024124CF17D017F43
:10B8C4000112B8E3AB10AA11A9127D107F0112B8BE
:0FB8D400E3AB13AA14A9157D017F0212B8E3227A
:10BF2900124C97751A6B751BD67513FF75146C75C2
:03BF3900154D2281
:10BF3C00124C97751A6C751B3C7513FF75146B7549
:03BF4C0015E722D4
:10BF4F00124C97751A6B751BF87513FF75146C757A
:03BF5F00156F2239
:10BF6200124C97751A6C751B5E7513FF75146C7500
:03BF72001509228C
:10BF7500124C97751A6C751B1A7513FF75146C7531
:03BF850015B322CF
:10B7F000AF08EF64036008EF64027006205B03E4A7
:10B80000F508E50814601D14605224027065124AA0
:10B81000D37519FF751A6C751B807513FF75146C41
:10B820007515A2221248CFC3648094805004D25B65
:10B8300080071249D84002C25BE4F5167519FF75FE
:10B840001A6C751BC4305B0A7513FF75146C751583
:10B85000D5227513FF75146C7515E622124CF8305D
:10B860005B0EC2AF129934125DBA75C760D2AF22B7
:04B87000E4F50822D1
:07C06F00751801124ADD22E1
:10BC1500751802304C0B7519FF751A6D751B198057
:10BC2500097519FF751A6C751BF7304D0A7513FFE9
:10BC350075146D75156E227513FF75146D75154C9C
:01BC450022DC
:10BC4600751802304C0B7519FF751A6D751B2A8015
:10BC5600097519FF751A6D751B08304D0A7513FFA6
:10BC660075146D75155D227513FF75146D75153B8D
:01BC760022AB
:10BC7700751802304E0B7519FF751A6D751BA1806B
:10BC8700097519FF751A6D751B7F304F0A7513FFFC
:10BC970075146D7515F6227513FF75146D7515D42A
:01BCA700227A
:10BCA800751802304E0B7519FF751A6D751BB28029
:10BCB800097519FF751A6D751B90304F0A7513FFBA
:10BCC80075146D7515E5227513FF75146D7515C31B
:01BCD8002249
:10BCD90075180230500B7519FF751A6E751B29807E
:10BCE900097519FF751A6E751B0730510A7513FF0F
:10BCF90075146E75157E227513FF75146E75155CB6
:01BD09002217
:10BD0A0075180230500B7519FF751A6E751B3A803B
:10BD1A00097519FF751A6E751B1830510A7513FFCC
:10BD2A0075146E75156D227513FF75146E75154BA6
:01BD3A0022E6
:04001E00124ADA2286
:10BE8E00E4F51804124BE0751A6E751BA07513FFBE
:07BE9E0075146F75151722E2
:10BE5E00E4F5187402124BE0751A6F751B06751314
:08BE6E00FF75146E7515B12279
:10BDFA00124CC47403F07519FF751A6E751BC2755F
:09BE0A0013FF75146F7515392240
:10BE1300124CC47404F07519FF751A6F751B2875DD
:09BE230013FF75146E7515D3228E
:10BE2C00124CC47405F07519FF751A6E751BE47508
:09BE3C0013FF75146F75155B22EC
:10BE4500124CC47406F07519FF751A6F751B4A7587
:09BE550013FF75146E7515F5223A
:08000300124CC4F0124ADD2288
:10A77A0090036178AA124AF07002F508E50814609D
:10A78A002714605914700302A8252403600302A841
:10A79A005E124AD320080512490880031249121290
:10A7AA004BE820183602A81B1248CFC36480948055
:10A7BA005004D20880071249D84002C208E4F516AC
:10A7CA00305A0D20080512490880081249128003E0
:10A7DA00124A99124BE820180280368039751804FB
:10A7EA0090036112494E50057401F0800B124AA37E
:10A7FA0040069003617406F0305A05124BE8800354
:10A80A00124AAD200805124908800312491220187D
:10A81A00051249F0803E1249FA80391248CFC364C2
:10A82A008094805004C21880071249D84002D21876
:10A83A00E4F516305A0D2018051249F0800812491D
:10A84A00FA8003124AB72008051249088003124900
:0FA85A0012124BE812499D9000067430028CC513
:10A8690090036578AC124AF07002F508E5081460A7
:10A879002714605914700302A9142403600302A960
:10A889004D124AD3200905124908800312491212B0
:10A899004BF220193602A90A1248CFC3648094806A
:10A8A9005004D20980071249D84002C209E4F516BA
:10A8B900305A0D20090512490880081249128003EF
:10A8C900124A99124BF22019028036803975180400
:10A8D90090036512494E50057401F0800B124AA38A
:10A8E90040069003657406F0305A05124BF2800356
:10A8F900124AAD200905124908800312491220198C
:10A90900051249F0803E1249FA80391248CFC364D2
:10A919008094805004C21980071249D84002D21984
:10A92900E4F516305A0D2019051249F0800812492C
:10A93900FA8003124AB7200905124908800312490F
:0FA9490012124BF212499D9000067431028CC518
:10A9580090036978AE124B397002F508E508146067
:10A968002714605914700302AA032403600302AA7F
:10A978003C124AD3200A05124908800312491212D0
:10A988004BFC201A3602A9F91248CFC36480948080
:10A998005004D20A80071249D84002C20AE4F516C8
:10A9A800305A0D200A0512490880081249128003FE
:10A9B800124A99124BFC201A028036803975180405
:10A9C80090036912494E50057401F0800B124AA396
:10A9D80040069003697406F0305A05124BFC800358
:10A9E800124AAD200A051249088003124912201A9A
:10A9F800051249F0803E1249FA80391248CFC364E3
:10AA08008094805004C21A80071249D84002D21A92
:10AA1800E4F516305A0D201A051249F0800812493B
:10AA2800FA8003124AB7200A05124908800312491E
:0FAA380012124BFC12499D9000067432028CC51D
:10AA470090036B78B0124B397002F508E508146073
:10AA57002714605914700302AAF22403600302AB9F
:10AA67002B124AD3200B05124908800312491212F0
:10AA77004C06201B3602AAE81248CFC36480948094
:10AA87005004D20B80071249D84002C20BE4F516D6
:10AA9700305A0D200B05124908800812491280030D
:10AAA700124A99124C06201B028036803975180409
:10AAB70090036B12494E50057401F0800B124AA3A4
:10AAC700400690036B7406F0305A05124C0680035B
:10AAD700124AAD200B051249088003124912201BA8
:10AAE700051249F0803E1249FA80391248CFC364F3
:10AAF7008094805004C21B80071249D84002D21BA1
:10AB0700E4F516305A0D201B051249F0800812494A
:10AB1700FA8003124AB7200B05124908800312492D
:0FAB270012124C0612499D9000067433028CC521
:10AB360090036F78B2124B6C7002F508E50814604A
:10AB46002714605914700302ABE12403600302ACBE
:10AB56001A124AD3200C0512490880031249121210
:10AB66004C10201C3602ABD71248CFC364809480A9
:10AB76005004D20C80071249D84002C20CE4F516E4
:10AB8600305A0D200C05124908800812491280031C
:10AB9600124A99124C10201C02803680397518040E
:10ABA60090036F12494E50057401F0800B124AA3B0
:10ABB600400690036F7406F0305A05124C1080035D
:10ABC600124AAD200C051249088003124912201CB6
:10ABD600051249F0803E1249FA80391248CFC36403
:10ABE6008094805004C21C80071249D84002D21CAF
:10ABF600E4F516305A0D201C051249F0800812495A
:10AC0600FA8003124AB7200C05124908800312493C
:0FAC160012124C1012499D9000067434028CC526
:10AC250090037378B4124B6C7002F508E508146054
:10AC35002714605914700302ACD02403600302ADDD
:10AC450009124AD3200D0512490880031249121230
:10AC55004C1A201D3602ACC61248CFC364809480BE
:10AC65005004D20D80071249D84002C20DE4F516F2
:10AC7500305A0D200D05124908800812491280032B
:10AC8500124A99124C1A201D028036803975180413
:10AC950090037312494E50057401F0800B124AA3BC
:10ACA50040069003737406F0305A05124C1A80035F
:10ACB500124AAD200D051249088003124912201DC4
:10ACC500051249F0803E1249FA80391248CFC36413
:10ACD5008094805004C21D80071249D84002D21DBD
:10ACE500E4F516305A0D201D051249F08008124969
:10ACF500FA8003124AB7200D05124908800312494C
:0FAD050012124C1A12499D9000067435028CC52B
:10AD140090037678B5124B897002F508E508146043
:10AD24002714605914700302ADBF2403600302ADFD
:10AD3400F8124AD3200E0512490880031249121250
:10AD44004C24201E3602ADB51248CFC364809480D3
:10AD54005004D20E80071249D84002C20EE4F51600
:10AD6400305A0D200E05124908800812491280033A
:10AD7400124A99124C24201E028036803975180418
:10AD840090037612494E50057401F0800B124AA3C9
:10AD940040069003767406F0305A05124C24800362
:10ADA400124AAD200E051249088003124912201ED2
:10ADB400051249F0803E1249FA80391248CFC36423
:10ADC4008094805004C21E80071249D84002D21ECB
:10ADD400E4F516305A0D201E051249F08008124978
:10ADE400FA8003124AB7200E05124908800312495B
:0FADF40012124C2412499D9000067436028CC531
:10AE030090037A78B7124B897002F508E50814604D
:10AE13002714605914700302AEAE2403600302AE1C
:10AE2300E7124AD3200F0512490880031249121270
:10AE33004C2E201F3602AEA41248CFC364809480E8
:10AE43005004D20F80071249D84002C20FE4F5160E
:10AE5300305A0D200F051249088008124912800349
:10AE6300124A99124C2E201F02803680397518041D
:10AE730090037A12494E50057401F0800B124AA3D5
:10AE8300400690037A7406F0305A05124C2E800364
:10AE9300124AAD200F051249088003124912201FE0
:10AEA300051249F0803E1249FA80391248CFC36433
:10AEB3008094805004C21F80071249D84002D21FD9
:10AEC300E4F516305A0D201F051249F08008124987
:10AED300FA8003124AB7200F05124908800312496A
:0FAEE30012124C2E12499D9000067437028CC536
:10A5980090036478AB124BA17002F508E5081460CB
:10A5A8002714605914700302A6432403600302A60B
:10A5B8007C124AD32010051249088003124912124E
:10A5C8004C3820203602A6391248CFC364809480C4
:10A5D8005004D21080071249D84002C210E4F51680
:10A5E800305A0D20100512490880081249128003BC
:10A5F800124A99124C382020028036803975180486
:10A6080090036412494E50057401F0800B124AA35E
:10A6180040069003647406F0305A05124C388003E3
:10A62800124AAD2010051249088003124912202051
:10A63800051249F0803E1249FA80391248CFC364A6
:10A648008094805004C22080071249D84002D2204A
:10A65800E4F516305A0D2020051249F080081249F9
:10A66800FA8003124AB720100512490880031249DC
:10A6780012124C38743212499F9000067430028CC2
:01A68800C50C
:10AEF20090036878AD124BA17002F508E508146062
:10AF02002714605914700302AF9D2403600302AF3B
:10AF1200D6124AD32011051249088003124912128F
:10AF22004C4220213602AF931248CFC364809480F2
:10AF32005004D21180071249D84002C211E4F5161A
:10AF4200305A0D2011051249088008124912800357
:10AF5200124A99124C422021028036803975180417
:10AF620090036812494E50057401F0800B124AA3F7
:10AF720040069003687406F0305A05124C42800372
:10AF8200124AAD20110512490880031249122021EC
:10AF9200051249F0803E1249FA80391248CFC36443
:10AFA2008094805004C22180071249D84002D221E5
:10AFB200E4F516305A0D2021051249F08008124995
:10AFC200FA8003124AB72011051249088003124978
:0FAFD20012124C42124A6A9000067431028CC56A
:10AFE10090036A78AF124BCB7002F508E508146044
:10AFF1002714605914700302B08C2403600302B05B
:10B00100C5124AD3201205124908800312491212AF
:10B011004C4C20223602B0821248CFC36480948007
:10B021005004D21280071249D84002C212E4F51628
:10B03100305A0D2012051249088008124912800366
:10B04100124A99124C4C202202803680397518041C
:10B0510090036A12494E50057401F0800B124AA305
:10B06100400690036A7406F0305A05124C4C800376
:10B07100124AAD20120512490880031249122022FA
:10B08100051249F0803E1249FA80391248CFC36453
:10B091008094805004C22280071249D84002D222F3
:10B0A100E4F516305A0D2022051249F080081249A4
:10B0B100FA8003124AB72012051249088003124987
:0FB0C10012124C4C124A6A9000067432028CC56F
:10B0D00090036E78B1124BCB7002F508E50814604E
:10B0E0002714605914700302B17B2403600302B17A
:10B0F000B4124AD3201305124908800312491212D0
:10B100004C5620233602B1711248CFC3648094801C
:10B110005004D21380071249D84002C213E4F51636
:10B12000305A0D2013051249088008124912800375
:10B13000124A99124C562023028036803975180421
:10B1400090036E12494E50057401F0800B124AA311
:10B15000400690036E7406F0305A05124C56800378
:10B16000124AAD2013051249088003124912202308
:10B17000051249F0803E1249FA80391248CFC36463
:10B180008094805004C22380071249D84002D22301
:10B19000E4F516305A0D2023051249F080081249B3
:10B1A000FA8003124AB72013051249088003124996
:0FB1B00012124C56124A6A9000067433028CC574
:10B1BF0090037278B3124C9E7002F508E508146084
:10B1CF002714605914700302B26A2403600302B299
:10B1DF00A3124AD3201405124908800312491212F0
:10B1EF004C6020243602B2601248CFC36480948032
:10B1FF005004D21480071249D84002C214E4F51645
:10B20F00305A0D2014051249088008124912800384
:10B21F00124A99124C602024028036803975180426
:10B22F0090037212494E50057401F0800B124AA31D
:10B23F0040069003727406F0305A05124C6080037A
:10B24F00124AAD2014051249088003124912202416
:10B25F00051249F0803E1249FA80391248CFC36473
:10B26F008094805004C22480071249D84002D2240F
:10B27F00E4F516305A0D2024051249F080081249C2
:10B28F00FA8003124AB720140512490880031249A5
:0FB29F0012124C60124A6A9000067434028CC579
:10A6890090037978B6124C9E7002F508E5081460BB
:10A699002714605914700302A7342403600302A726
:10A6A9006D124AD320150512490880031249121266
:10A6B9004C6A20253602A72A1248CFC364809480A9
:10A6C9005004D21580071249D84002C215E4F51684
:10A6D900305A0D20150512490880081249128003C5
:10A6E900124A99124C6A202502803680397518045D
:10A6F90090037912494E50057401F0800B124AA358
:10A7090040069003797406F0305A05124C6A8003AA
:10A71900124AAD2015051249088003124912202555
:10A72900051249F0803E1249FA80391248CFC364B4
:10A739008094805004C22580071249D84002D2254E
:10A74900E4F516305A0D2025051249F08008124902
:10A75900FA8003124AB720150512490880031249E5
:10A7690012124C6A7433124A6C9000067435028CCA
:01A77900C51A
:10A2B200900381E0243078B8F6E50864047002F572
:10A2C20008E50814602714605914700302A362247D
:10A2D20003600302A39B124AD32016051249088089
:10A2E20003124912124C7420263602A3581248CF88
:10A2F200C3648094805004D21680071249D8400269
:10A30200C216E4F516305A0D2016051249088008C7
:10A312001249128003124A99124C74202602803686
:10A32200803975180490038112494E50057401F06A
:10A33200800B124AA340069003817406F0305A053E
:10A34200124C748003124AAD20160512490880038C
:10A352001249122026051249F0803E1249FA80392C
:10A362001248CFC3648094805004C22680071249E9
:10A37200D84002D226E4F516305A0D20260512499D
:10A38200F080081249FA8003124AB72016051249D2
:10A39200088003124912124C749000057433124A59
:09A3A200FE9000067436028CC521
:10A4A200900388E0243078B9F6E50864047002F578
:10A4B20008E50814602714605914700302A5522499
:10A4C20003600302A58B124AD320170512490880A4
:10A4D20003124912124C7E20273602A5481248CF99
:10A4E200C3648094805004D21780071249D8400276
:10A4F200C217E4F516305A0D2017051249088008D4
:10A502001249128003124A99124C7E202702803689
:10A51200803975180490038812494E50057401F071
:10A52200800B124AA340069003887406F0305A0545
:10A53200124C7E8003124AAD20170512490880038F
:10A542001249122027051249F0803E1249FA803939
:10A552001248CFC3648094805004C22780071249F6
:10A56200D84002D227E4F516305A0D2027051249A9
:10A57200F080081249FA8003124AB72017051249DF
:10A58200088003124912124C7E7433124BD490008D
:06A59200067437028CC5BF
:04C07D00124ADA2267
:10970E00E50864077002F508124D2850030297BB56
:10971E00AE47AF487C037DE8124BB61248AD9003BE
:10972E0006124D007D64124BB61248AD124CFF7DF1
:10973E000A124BB61248AD124CFF7D0A1248ADA369
:10974E00F0E546124A7890030BF0E546124A7F90F8
:10975E00030CF0E549124A7890030EF0E549124ADF
:10976E007F90030FF0E53C124A78900318F0E53C29
:10977E00124A7F900319F0E539124A7890031BF0D4
:10978E00E539124A7F90031CF0E538124A789003AF
:10979E001EF0E538124A7F90031FF0751901751AF5
:1097AE0003751B01751301751403751512E508B4C5
:1097BE00070040030299339097CCF828287302973C
:1097CE00E10297F702982002985B0298A80298D8B7
:1097DE00029904124AD37519FF751A6F751BB2756B
:1097EE0013FF75146F7515C3221248CFEF2548F578
:1097FE0048EE3547F547E4F516305A0302993374AF
:10980E0020124BD4124D157420128CC590000802F4
:10981E00992E751804E5162546F54612495650053B
:10982E00754601800ED3EF940CEE64809480400355
:10983E0075460CE4F516305A03029933124CF1902A
:10984E00000A7420128CC590000B02992E75180414
:10985E00E5162549F54912495650057549018020EE
:10986E00AD46ED3395E0FC74C92DF58274033CF5DD
:10987E0083E0FDFBD3EF9B7480F86E9840028D4918
:10988E00E4F516305A03029933124CF190000D7420
:10989E0020128CC590000E02992E751804E516251F
:1098AE003CF53C124CA75005E4F53C800ED3EF94EA
:1098BE0017EE648094804003753C17E4F516205A29
:1098CE00641249E290000702992E751804E51625D8
:1098DE0039F539124CA75005E4F5398008124D328E
:1098EE00400375393BE4F516205A3A9000091249A7
:1098FE00E590000A802A751804E5162538F5381209
:10990E004CA75005E4F5388008124D3240037538E7
:10991E003BE4F516205A0E90000C124A2490000DCE
:06992E007420128CC5221A
:10BDD800E50864017002F508E5087015124AD37584
:10BDE80019FF751A6F751BA17513FF75146F7515FB
:02BDF800D42253
:04C08100124ADA2263
:109B4400E50864047002F508124D285003029C31A4
:109B54007B107A27124C9012464812BAE27B0A1202
:109B640046319002D3124C881246481249C4124618
:109B740032EB24309002D4F0E47B649001711246FD
:109B8400451249C41246329002D5124657900171CB
:109B94001246481249C4124632EB24309002D612BF
:109BA400465A90017112464812BAE2EB24309002F0
:109BB400D7F0E47B107A27F9F89001711246481225
:109BC40049C4124632900184124C88124648124904
:109BD400C4124632EB2430900185F0E47B64FAF938
:109BE400F89001711246481249C4124632EB2430EF
:109BF40090018612465A9001711246481249C412C5
:109C04004632EB243090018712465A900171124675
:109C14004812BAE2EB2430900188F07519FF751AE6
:109C240070751B077513017514027515CEE50814BC
:109C3400602314602414607724036003029D0712D8
:109C44004AD37519FF751A6F751BE57513FF7514E3
:109C54007075152922124CF822751804124860FBFD
:109C6400C0007D64124846D000900171124811E48E
:109C74007F01FE12485EFBC3128D7E500C90017171
:109C8400128DD8000000018014124859FBD3128DA4
:109C94007E400A900171128DD80000FFFFE4F51692
:109CA400205A60900005124A24124D15029D027537
:109CB4001804124860FB1248D2FDFC90017112484E
:109CC40023E47F01FE12485EFBC3128D7E500C908C
:109CD4000171128DD8000000018014124859FBD381
:109CE400128D7E400A900171128DD80000FFFFE4AE
:109CF400F516205A0E900008124A58900009742054
:049D0400128CC522D6
:10BB6700E50864027002F508E50814601904702BF3
:10BB7700124AD37519FF751A6F751BF67513FF7582
:10BB8700147075151822124CF87519FF751A70750F
:0CBB97001B3A75130175140275152C2261
:10BBA300E50864027002F508E50814601904702BB7
:10BBB300124AD37519FF751A70751B4B7513FF75F0
:10BBC300146C75159122124CF87519FF751A70755E
:0CBBD3001B6D751301751400751502221E
:10BF8800124C97751A70751B5C7513FF75146C75D8
:03BF9800152B2244
:10920600E50864037002F508751901751A02751BE5
:1092160089124A4E60211460311460411460511461
:10922600605E2405707B1248DA900359124880A3C9
:10923600F090035902929674321248DC90035B1246
:109246004880A3F090035B02929674331248FC9018
:10925600035D124880A3F090035D02929674341267
:10926600493090035F124880A3F090035F02929604
:10927600124965900362124880A3F0900362801041
:109286007436124967900366124880A3F09003660D
:10929600124B15124BAA128CF99002F61248A1A392
:1092A600F0124D0860111470030293AE240260039D
:1092B600029489124AD322124A4B60391460591417
:1092C600607614700302935C14700302937A24058B
:1092D600600302939C1248D2124B24124985500710
:1092E600E490035902938C124A2F500302939C90E8
:1092F60003590293991248D2124B24124D3C12493B
:109306008E5007E490035B02938C124A2F5003029F
:10931600939C90035B0293991248D2124B24124DF0
:109326004612498E5007E490035D02938C124A2F31
:10933600406490035D0293991248D2124B24124D59
:109346005012498E5006E490035F803A124A2F402D
:109356004590035F803D1248D2124B24124D5A129B
:10936600498E5006E4900362801C124A2F402790D3
:109376000362801F1248D2124B24124D6412498E8A
:109386005009E4900366F0A3F0800B124A2F4006C2
:10939600900366124CCBE4F516305A0302948912F8
:1093A6004A55900004029484124A4B603614605069
:1093B60014606A14700302943E14700302945924D4
:1093C6000560030294781248D21249855007E4904A
:1093D6000359029468124A2F500302947890035955
:1093E6000294751248D2124D3C12498E5007E490F1
:1093F600035B029468124A2F407890035B029475CF
:109406001248D2124D4612498E5007E490035D026F
:109416009468124A2F405B90035D0294751248D2FD
:10942600124D5012498E5006E490035F8034124A62
:109436002F403F90035F80371248D2124D5A12498F
:109446008E5006E49003628019124A2F402490033E
:1094560062801C1248D2124D6412498E5009E49063
:109466000366F0A3F0800B124A2F400690036612A3
:109476004CCBE4F516205A0B1249E29000077420F3
:04948600128CC5225D
:10948A00E50864037002F508751901751A02751B5F
:10949A009A124A4E602114602F14603D14604B14D6
:1094AA006058240570751248DA90036C124880A33C
:1094BA00F090036C0295141248FA900370124880D7
:1094CA00A3F090037002951412492E900374124867
:1094DA0080A3F0900374029514124A16900377122F
:1094EA004880A3F090037702951412496590037B94
:1094FA00124880A3F090037B80107436124A1890A9
:10950A000382124880A3F0900382124B15124BAAD1
:10951A001248AD9002F61248A4A3F0124D08601149
:10952A0014700302962F2402600302970D124AD385
:10953A0022124A4B603C14605C1460791470030276
:10954A0095DD1470030295FB2405600302961D1233
:10955A0048D2124B24124D6E12498E5007E49003E2
:10956A006C02960D124A2F500302961D90036C024C
:10957A00961A1248D2124B24124D7812498E50076D
:10958A00E490037002960D124A2F500302961D9022
:10959A00037002961A1248D2124B24124D821249B3
:1095AA008E5007E490037402960D124A2F4064907D
:1095BA00037402961A1248D2124B24124D8C124985
:1095CA008E5006E4900377803A124A2F4045900362
:1095DA0077803D1248D2124B24124D9612498E5072
:1095EA0006E490037B801C124A2F402790037B805D
:1095FA001F1248D2124B24124DA012498E5009E470
:10960A00900382F0A3F0800B124A2F400690038247
:10961A00124CCBE4F516305A0302970D124A5590B4
:10962A000004029708124A4B603914605314606DA3
:10963A001470030296C21470030296DD24056003B7
:10964A000296FC1248D2124D6E12498E5007E490CF
:10965A00036C0296EC124A2F50030296FC90036C9C
:10966A000296F91248D2124D7812498E5007E490A8
:10967A0003700296EC124A2F40789003700296F912
:10968A001248D2124D8212498E5007E49003740296
:10969A0096EC124A2F405B9003740296F91248D254
:1096AA00124D8C12498E5006E49003778034124A88
:1096BA002F403F90037780371248D2124D961249B5
:1096CA008E5006E490037B8019124A2F402490039F
:1096DA007B801C1248D2124DA012498E5009E49088
:1096EA000382F0A3F0800B124A2F400690038212E5
:1096FA004CCBE4F516205A0B1249E290000774206D
:04970A00128CC522D6
:101B0000E50864057002F508124DAA124A4E7003EA
:101B1000021CB9147003021E43147003021FCD147B
:101B200070030221571470030222E12405600302AE
:101B3000247F1248DA90038D1246091249BD1246DD
:101B40003212465490038D12460FE47B64124632E3
:101B5000E47B0A124632124B4212465A90038D120F
:101B6000460FE47B0A124632E47B0A124632124BDD
:101B70004912465A90038D12460FE47B0A124632F0
:101B8000124B5012465A90038D12460F1248B4C0A1
:101B900004C005C006C00712465B90038D1246487C
:101BA000124623D003D002D001D00012469512462F
:101BB00032E47B0A124632124B2B12465A90038DA6
:101BC00012460F1248B4C004C005C006C007124632
:101BD0005B90038D124648124623D003D002D001F9
:101BE000D000124695124632124B5712465A9003B5
:101BF0008D1246481246231248B4C004C005C006E0
:101C0000C00712465B90038D12464812462CD00343
:101C1000D002D001D000124695124632E47B0A125F
:101C20004632124B3212465A90038D1246481246E3
:101C3000231248B4C004C005C006C00712465B901A
:101C4000038D12464812462CD003D002D001D0009A
:101C5000124695124632124B0712465A90038D12C5
:101C6000464812462C12465B128D2FC004C005C098
:101C700006C007124A6390038D12464812BAE2D09A
:101C800003D002D001D000124695124632E47B0AFE
:101C9000124632124B0E12465A90038D12464812CB
:101CA000462C12465B128D2FC004C005C006C0072B
:101CB000124A6390038D0224681248FA12465B9020
:101CC000039512460F1249BD124632124654900334
:101CD0009512460FE47B64124632E47B0A124632C8
:101CE000124B4212465A90039512460FE47B0A1299
:101CF0004632E47B0A124632124B4912465A90038E
:101D00009512460FE47B0A124632124B5012465A85
:101D100090039512460F1248B4C004C005C006C017
:101D20000712465B900395124648124623D003D013
:101D300002D001D000124695124632E47B0A1246C8
:101D400032124B2B12465A90039512460F1248B48A
:101D5000C004C005C006C00712465B90039512463A
:101D600048124623D003D002D001D000124695126B
:101D70004632124B5712465A900395124648124665
:101D8000231248B4C004C005C006C00712465B90C9
:101D9000039512464812462CD003D002D001D00041
:101DA000124695124632E47B0A124632124B321228
:101DB000465A9003951246481246231248B4C0046E
:101DC000C005C006C00712465B9003951246481234
:101DD000462CD003D002D001D000124695124632D4
:101DE000124B0712465A90039512464812462C127F
:101DF000465B128D2FC004C005C006C007124A639F
:101E000090039512464812BAE2D003D002D001D016
:101E100000124695124632E47B0A124632124B0EED
:101E200012465A90039512464812462C12465B12EF
:101E30008D2FC004C005C006C007124A63900395E9
:101E400002246812492E12465B90039D12460F121F
:101E500049BD12463212465490039D12460FE47B50
:101E600064124632E47B0A124632124B4212465A40
:101E700090039D12460FE47B0A124632E47B0A125D
:101E80004632124B4912465A90039D12460FE47B8C
:101E90000A124632124B5012465A90039D12460FB8
:101EA0001248B4C004C005C006C00712465B9003C8
:101EB0009D124648124623D003D002D001D0001212
:101EC0004695124632E47B0A124632124B2B1246DA
:101ED0005A90039D12460F1248B4C004C005C006B4
:101EE000C00712465B90039D124648124623D0035A
:101EF000D002D001D000124695124632124B571232
:101F0000465A90039D1246481246231248B4C00414
:101F1000C005C006C00712465B90039D12464812DA
:101F2000462CD003D002D001D00012469512463282
:101F3000E47B0A124632124B3212465A90039D122B
:101F400046481246231248B4C004C005C006C00764
:101F500012465B90039D12464812462CD003D002D5
:101F6000D001D000124695124632124B0712465A43
:101F700090039D12464812462C12465B128D2FC0CC
:101F800004C005C006C007124A6390039D1246486C
:101F900012BAE2D003D002D001D000124695124608
:101FA00032E47B0A124632124B0E12465A90039DBF
:101FB00012464812462C12465B128D2FC004C005F3
:101FC000C006C007124A6390039D022468124A1695
:101FD00012465B9003A512460F1249BD12463212FB
:101FE00046549003A512460FE47B64124632E47B0C
:101FF0000A124632124B4212465A9003A512460F5D
:10200000E47B0A124632E47B0A124632124B491232
:10201000465A9003A512460FE47B0A124632124B31
:102020005012465A9003A512460F1248B4C004C07D
:1020300005C006C00712465B9003A512464812462B
:1020400023D003D002D001D000124695124632E4CC
:102050007B0A124632124B2B12465A9003A51246A7
:102060000F1248B4C004C005C006C00712465B90FA
:1020700003A5124648124623D003D002D001D00057
:10208000124695124632124B5712465A9003A51229
:1020900046481246231248B4C004C005C006C00713
:1020A00012465B9003A512464812462CD003D0027C
:1020B000D001D000124695124632E47B0A12463215
:1020C000124B3212465A9003A5124648124623126A
:1020D00048B4C004C005C006C00712465B9003A503
:1020E00012464812462CD003D002D001D00012462E
:1020F00095124632124B0712465A9003A5124648D3
:1021000012462C12465B128D2FC004C005C006C0BB
:1021100007124A639003A512464812BAE2D003D0D0
:1021200002D001D000124695124632E47B0A1246D4
:1021300032124B0E12465A9003A512464812462CF4
:1021400012465B128D2FC004C005C006C007124A9C
:10215000639003A502246812496512465B9003A9A7
:1021600012460F1249BD1246321246549003A9126C
:10217000460FE47B64124632E47B0A124632124B6D
:102180004212465A9003A912460FE47B0A124632C5
:10219000E47B0A124632124B4912465A9003A912A6
:1021A000460FE47B0A124632124B5012465A9003F5
:1021B000A912460F1248B4C004C005C006C00712D9
:1021C000465B9003A9124648124623D003D002D0A2
:1021D00001D000124695124632E47B0A12463212B2
:1021E0004B2B12465A9003A912460F1248B4C00452
:1021F000C005C006C00712465B9003A912464812EC
:102200004623D003D002D001D000124695124632A8
:10221000124B5712465A9003A912464812462312EF
:1022200048B4C004C005C006C00712465B9003A9AD
:1022300012464812462CD003D002D001D0001246DC
:1022400095124632E47B0A124632124B3212465A3B
:102250009003A91246481246231248B4C004C00590
:10226000C006C00712465B9003A912464812462CCE
:10227000D003D002D001D000124695124632124B44
:102280000712465A9003A912464812462C12465B82
:10229000128D2FC004C005C006C007124A63900308
:1022A000A912464812BAE2D003D002D001D00012DF
:1022B0004695124632E47B0A124632124B0E124603
:1022C0005A9003A912464812462C12465B128D2FD3
:1022D000C004C005C006C007124A639003A90224C7
:1022E00068124AF912465B9003AD12460F1249BDBF
:1022F0001246321246549003AD12460FE47B64122C
:102300004632E47B0A124632124B4212465A90037E
:10231000AD12460FE47B0A124632E47B0A124632C3
:10232000124B4912465A9003AD12460FE47B0A1233
:102330004632124B5012465A9003AD12460F1248C5
:10234000B4C004C005C006C00712465B9003AD12BE
:102350004648124623D003D002D001D00012469541
:10236000124632E47B0A124632124B2B12465A9026
:1023700003AD12460F1248B4C004C005C006C00722
:1023800012465B9003AD124648124623D003D0029A
:10239000D001D000124695124632124B5712465ABF
:1023A0009003AD1246481246231248B4C004C0053B
:1023B000C006C00712465B9003AD12464812462C79
:1023C000D003D002D001D000124695124632E47BF1
:1023D0000A124632124B3212465A9003AD12464848
:1023E0001246231248B4C004C005C006C0071246F6
:1023F0005B9003AD12464812462CD003D002D001A8
:10240000D000124695124632124B0712465A9003DC
:10241000AD12464812462C12465B128D2FC004C0E6
:1024200005C006C007124A639003AD12464812BAAF
:10243000E2D003D002D001D000124695124632E419
:102440007B0A124632124B0E12465A9003AD1246C8
:102450004812462C12465B128D2FC004C005C006E0
:10246000C007124A639003AD12464812BAE2D00385
:10247000D002D001D000124695124632124CD3122F
:102480004BBE601D14700302261E147003022768E1
:1024900014700302288824046003022974124AD3AA
:1024A00022124A4B60541470030225371470030241
:1024B000256C1470030225A61470030225D524058B
:1024C000600302260C90038D124863FBC000C0011C
:1024D000C002C0031248D21249CBD003D002D001AF
:1024E000D00090038D12483590038D124648EC338E
:1024F000400302260C90038D8033900395124863AD
:10250000FBC000C001C002C0031248D21249CBD0A8
:1025100003D002D001D0009003951248719003952A
:10252000124648EC33400302260C900395128DD8D6
:102530000000000002260C90039D124863FBC000BF
:10254000C001C002C0031248D21249CBD003D0024E
:10255000D001D00090039D1248C090039D124648C0
:10256000EC33400302260C90039D80309003A512AB
:102570004863FBC000C001C002C0031248D2124928
:10258000CBD003D002D001D0009003A51248EB902D
:1025900003A5124648EC3350739003A5128DD80062
:1025A00000000002260C9003A9124863FBC000C083
:1025B00001C002C0031248D21249CBD003D002D0CE
:1025C00001D00012491C9003A9124648EC33503C3C
:1025D0009003A980309003AD124863FBC000C00196
:1025E000C002C0031248D21249CBD003D002D0019E
:1025F000D0009003AD12491F9003AD124648EC3352
:10260000500A9003AD128DD800000000E4F516309A
:102610005A03022974124A8B124B7502296F124A0F
:102620004B604914607B1470030226CE14700302C1
:102630002700147003022727240560030227569001
:10264000038D124863FBC0001248D27C047DB01297
:10265000484FD00090038D12493F90038D12464899
:10266000EC33400302275690038D802B9003951284
:102670004863FBC0001248D27C047DB012484FD0A2
:1026800000900395124976900395124648EC33402A
:1026900003022756900395128DD8000000000227F0
:1026A0005690039D124863FBC0001248D27C047D03
:1026B000B012484FD00090039D1249AE90039D1276
:1026C0004648EC33400302275690039D8028900330
:1026D000A5124863FBC0001248D27C047DB01248AA
:1026E0004FD0009003A5124A079003A5124648EC6C
:1026F0003350639003A5128DD800000000022756C6
:102700009003A9124863FBC0001248D27C047DB03C
:1027100012484FD00012491C9003A9124648EC33CE
:1027200050349003A980289003AD124863FBC00089
:102730001248D27C047DB012484FD0009003AD12F5
:102740004A3C9003AD124648EC33500A9003AD1258
:102750008DD800000000E4F516305A0302297412E7
:1027600049E290000702296F124A4B604214606DE3
:1027700014700302280014700302282B1470030243
:10278000284B2405600302287390038D124863FBD5
:10279000C000124844D00090038D124AC490038DAB
:1027A000124648EC33400302287390038D80249036
:1027B0000395124863FBC000124844D00090039573
:1027C000124B92900395124648EC33400302287353
:1027D000900395128DD80000000002287390039D8D
:1027E000124863FBC000124844D00090039D124B76
:1027F0009290039D124648EC33507890039D8021BF
:102800009003A5124863FBC000124844D000900317
:10281000A5124CDB9003A5124648EC3350559003AB
:10282000A5128DD8000000000228739003A9124859
:1028300063FBC000124844D00012491C9003A91247
:102840004648EC33502D9003A980219003AD1248E7
:1028500063FBC000124844D0009003AD124CDB90E3
:1028600003AD124648EC33500A9003AD128DD800E8
:10287000000000E4F516305A030229749000091292
:102880004A8E90000A02296F124A4B603714605A30
:10289000146072147003022928147003022943245F
:1028A00005600302296390038D12486390038D1223
:1028B000467290038D124648EC3340030229639020
:1028C000038D801C9003951248639003951246B6C1
:1028D000900395124648EC33400302296390039518
:1028E000128DD80000000002296390039D124863F6
:1028F00090039D1246E990039D124648EC335063C5
:1029000090039D80199003A51248639003A5124778
:102910001C9003A5124648EC3350489003A5128D35
:10292000D8000000000229639003A91248639003B5
:10293000A912474F9003A9124648EC335025900343
:10294000A980199003AD1248639003AD124782909D
:1029500003AD124648EC33500A9003AD128DD800F7
:10296000000000E4F516205A0B124B5E90000D7427
:0529700020128CC522BD
:10A17C00E50864027002F508124DAA9002CDE0FFCA
:10A18C0024FE601814601F14602614602D146034B3
:10A19C002405704A1248DA30013B802E1248FA30FE
:10A1AC0002028026802F12492E300302801C80254B
:10A1BC00124A163004028012801B124965300502C7
:10A1CC0080088011124AF930060B7513FF75147054
:10A1DC0075157E80097513FF75147075158FE5085C
:10A1EC0014600A04600302A2B1124AD32275180447
:10A1FC00EF24FE602F14604414605814606C1470CB
:10A20C000302A28D2405600302A2A51248D2C364E6
:10A21C008094805005D20102A2A21249D84049C2B2
:10A22C000102A2A21248D2C3648094805004D202CC
:10A23C0080071249D84002C20202A2A21248D2C31D
:10A24C00648094805004D20380071249D84002C223
:10A25C000380431248D2C3648094805004D204809B
:10A26C00071249D84002C204802C1248D2C3648021
:10A27C0094805004D20580071249D84002C2058050
:10A28C00151248D2C3648094805004D20680071201
:10A29C0049D84002C206E4F516305A097513FF7509
:06A2AC0014707515A022DC
:10297500E50864057002F508751901751A02751BDD
:10298500DF124A4E7003022B37147003022CC11458
:102995007003022E4B147003022FD51470030231FD
:1029A5005F240560030232FD1248DA12465B90038C
:1029B500B112460F1249BD1246321246549003B168
:1029C50012460FE47B64124632E47B0A1246321249
:1029D5004B4212465A9003B112460FE47B0A124647
:1029E50032E47B0A124632124B4912465A9003B121
:1029F50012460FE47B0A124632124B5012465A9089
:102A050003B112460F1248B4C004C005C006C00782
:102A150012465B9003B1124648124623D003D002FA
:102A2500D001D000124695124632E47B0A12463296
:102A3500124B2B12465A9003B112460F1248B4C0DE
:102A450004C005C006C00712465B9003B112464894
:102A5500124623D003D002D001D00012469512466B
:102A650032124B5712465A9003B11246481246236A
:102A75001248B4C004C005C006C00712465B9003E7
:102A8500B112464812462CD003D002D001D0001214
:102A95004695124632E47B0A124632124B321246F2
:102AA5005A9003B11246481246231248B4C004C0D6
:102AB50005C006C00712465B9003B1124648124690
:102AC5002CD003D002D001D0001246951246321206
:102AD5004B0712465A9003B112464812462C12462D
:102AE5005B128D2FC004C005C006C007124A639053
:102AF50003B112464812BAE2D003D002D001D00089
:102B0500124695124632E47B0A124632124B0E12D9
:102B1500465A9003B112464812462C12465B128D56
:102B25002FC004C005C006C007124A639003B10256
:102B350032E61248FA12465B9003B512460F124967
:102B4500BD1246321246549003B512460FE47B641B
:102B5500124632E47B0A124632124B4212465A9012
:102B650003B512460FE47B0A124632E47B0A12468D
:102B750032124B4912465A9003B512460FE47B0AAE
:102B8500124632124B5012465A9003B512460F1296
:102B950048B4C004C005C006C00712465B9003B523
:102BA500124648124623D003D002D001D000124667
:102BB50095124632E47B0A124632124B2B12465AC4
:102BC5009003B512460F1248B4C004C005C006C034
:102BD5000712465B9003B5124648124623D003D030
:102BE50002D001D000124695124632124B571246BA
:102BF5005A9003B51246481246231248B4C004C081
:102C050005C006C00712465B9003B512464812463A
:102C15002CD003D002D001D000124695124632E4E2
:102C25007B0A124632124B3212465A9003B51246AF
:102C3500481246231248B4C004C005C006C0071296
:102C4500465B9003B512464812462CD003D002D0FD
:102C550001D000124695124632124B0712465A9081
:102C650003B512464812462C12465B128D2FC0043E
:102C7500C005C006C007124A639003B51246481244
:102C8500BAE2D003D002D001D000124695124632E6
:102C9500E47B0A124632124B0E12465A9003B512C5
:102CA500464812462C12465B128D2FC004C005C043
:102CB50006C007124A639003B50232E612492E1286
:102CC500465B9003B912460F1249BD1246321246B1
:102CD500549003B912460FE47B64124632E47B0A32
:102CE500124632124B4212465A9003B912460FE46D
:102CF5007B0A124632E47B0A124632124B491246CF
:102D05005A9003B912460FE47B0A124632124B5011
:102D150012465A9003B912460F1248B4C004C005B2
:102D2500C006C00712465B9003B9124648124623F7
:102D3500D003D002D001D000124695124632E47B72
:102D45000A124632124B2B12465A9003B912460FFD
:102D55001248B4C004C005C006C00712465B900304
:102D6500B9124648124623D003D002D001D0001232
:102D75004695124632124B5712465A9003B91246DF
:102D8500481246231248B4C004C005C006C0071245
:102D9500465B9003B912464812462CD003D002D0A8
:102DA50001D000124695124632E47B0A12463212D1
:102DB5004B3212465A9003B912464812462312481E
:102DC500B4C004C005C006C00712465B9003B91223
:102DD500464812462CD003D002D001D000124695A9
:102DE500124632124B0712465A9003B91246481240
:102DF500462C12465B128D2FC004C005C006C007C5
:102E0500124A639003B912464812BAE2D003D002BF
:102E1500D001D000124695124632E47B0A124632A2
:102E2500124B0E12465A9003B912464812462C12FE
:102E3500465B128D2FC004C005C006C007124A6349
:102E45009003B90232E6124A1612465B9003BD1290
:102E5500460F1249BD1246321246549003BD124622
:102E65000FE47B64124632E47B0A124632124B426F
:102E750012465A9003BD12460FE47B0A124632E40D
:102E85007B0A124632124B4912465A9003BD12462E
:102E95000FE47B0A124632124B5012465A9003BD7C
:102EA50012460F1248B4C004C005C006C00712463A
:102EB5005B9003BD124648124623D003D002D001D1
:102EC500D000124695124632E47B0A124632124B66
:102ED5002B12465A9003BD12460F1248B4C004C0C7
:102EE50005C006C00712465B9003BD124648124650
:102EF50023D003D002D001D00012469512463212DB
:102F05004B5712465A9003BD1246481246231248A3
:102F1500B4C004C005C006C00712465B9003BD12CD
:102F2500464812462CD003D002D001D00012469557
:102F3500124632E47B0A124632124B3212465A903E
:102F450003BD1246481246231248B4C004C005C04A
:102F550006C00712465B9003BD12464812462CD0A8
:102F650003D002D001D000124695124632124B070B
:102F750012465A9003BD12464812462C12465B1261
:102F85008D2FC004C005C006C007124A639003BD5B
:102F950012464812BAE2D003D002D001D000124640
:102FA50095124632E47B0A124632124B0E12465AED
:102FB5009003BD12464812462C12465B128D2FC057
:102FC50004C005C006C007124A639003BD0232E67D
:102FD50012496512465B9003C112460F1249BD1294
:102FE50046321246549003C112460FE47B641246E2
:102FF50032E47B0A124632124B4212465A9003C102
:1030050012460FE47B0A124632E47B0A124632125C
:103015004B4912465A9003C112460FE47B0A1246E9
:1030250032124B5012465A9003C112460F1248B441
:10303500C004C005C006C00712465B9003C1124616
:1030450048124623D003D002D001D0001246951273
:103055004632E47B0A124632124B2B12465A900333
:10306500C112460F1248B4C004C005C006C00712FD
:10307500465B9003C1124648124623D003D002D0C6
:1030850001D000124695124632124B5712465A90FD
:1030950003C11246481246231248B4C004C005C0F5
:1030A50006C00712465B9003C112464812462CD053
:1030B50003D002D001D000124695124632E47B0AB5
:1030C500124632124B3212465A9003C1124648122A
:1030D50046231248B4C004C005C006C00712465BAB
:1030E5009003C112464812462CD003D002D001D01D
:1030F50000124695124632124B0712465A9003C1EA
:1031050012464812462C12465B128D2FC004C0058C
:10311500C006C007124A639003C112464812BAE2BC
:10312500D003D002D001D000124695124632E47B7E
:103135000A124632124B0E12465A9003C1124648E5
:1031450012462C12465B128D2FC004C005C006C066
:1031550007124A639003C10232E6124AF912465B2E
:103165009003C512460F1249BD12463212465490BD
:1031750003C512460FE47B64124632E47B0A12460D
:1031850032124B4212465A9003C512460FE47B0A8F
:10319500124632E47B0A124632124B4912465A90C5
:1031A50003C512460FE47B0A124632124B501246F3
:1031B5005A9003C512460F1248B4C004C005C00694
:1031C500C00712465B9003C5124648124623D0033A
:1031D500D002D001D000124695124632E47B0A1285
:1031E5004632124B2B12465A9003C512460F12480F
:1031F500B4C004C005C006C00712465B9003C512E3
:103205004648124623D003D002D001D0001246957D
:10321500124632124B5712465A9003C512464812AF
:1032250046231248B4C004C005C006C00712465B59
:103235009003C512464812462CD003D002D001D0C7
:1032450000124695124632E47B0A124632124B3280
:1032550012465A9003C51246481246231248B4C076
:1032650004C005C006C00712465B9003C512464858
:1032750012462CD003D002D001D00012469512463A
:1032850032124B0712465A9003C512464812462C75
:1032950012465B128D2FC004C005C006C007124A36
:1032A500639003C512464812BAE2D003D002D0019A
:1032B500D000124695124632E47B0A124632124B72
:1032C5000E12465A9003C512464812462C12465B0A
:1032D500128D2FC004C005C006C007124A639003B3
:1032E500C512464812BAE2D003D002D001D000126E
:1032F5004695124632124CD3124BBE601D14700314
:1033050002348D1470030235C81470030236D924B3
:103315000460030237C5124AD322124A4B60511486
:1033250070030233AF1470030233E11470030234E7
:10333500181470030234472405600302347B90039C
:10334500B1124863FBC000C001C002C0031248D2DD
:103355001249CBD003D002D001D00012493C9003D2
:10336500B1124648EC33400302347B9003B1803000
:103375009003B5124863FBC000C001C002C0031230
:1033850048D21249CBD003D002D001D000124973E4
:103395009003B5124648EC33400302347B9003B5E5
:1033A500128DD80000000002347B9003B9124863E7
:1033B500FBC000C001C002C0031248D21249CBD0E5
:1033C50003D002D001D0001249AB9003B912464890
:1033D500EC33400302347B9003B9802D9003BD127A
:1033E5004863FBC000C001C002C0031248D21249A5
:1033F500CBD003D002D001D000124A049003BD12F5
:103405004648EC3350709003BD128DD80000000083
:1034150002347B9003C1124863FBC000C001C002A7
:10342500C0031248D21249CBD003D002D001D0003C
:10343500124A399003C1124648EC3350399003C102
:10344500802D9003C5124863FBC000C001C002C0B7
:10345500031248D21249CBD003D002D001D00012BA
:103465004AC19003C5124648EC33500A9003C51271
:103475008DD800000000E4F516305A030237C51256
:103485004A8B124B750237C0124A4B604614607561
:10349500147003023534147003023563147003028B
:1034A500358A240560030235B69003B1124863FBE3
:1034B500C0001248D27C047DB012484FD00012499A
:1034C5003C9003B1124648EC3340030235B69003F5
:1034D500B180289003B5124863FBC0001248D27C26
:1034E500047DB012484FD0001249739003B51246BF
:1034F50048EC3340030235B69003B5128DD8000071
:1035050000000235B69003B9124863FBC0001248AB
:10351500D27C047DB012484FD0001249AB9003B95C
:10352500124648EC3340030235B69003B980259026
:1035350003BD124863FBC0001248D27C047DB01263
:10354500484FD000124A049003BD124648EC335050
:10355500609003BD128DD8000000000235B69003BF
:10356500C1124863FBC0001248D27C047DB01248EA
:103575004FD000124A399003C1124648EC335031FE
:103585009003C180259003C5124863FBC000124813
:10359500D27C047DB012484FD000124AC19003C5B9
:1035A500124648EC33500A9003C5128DD80000002E
:1035B50000E4F516305A030237C51249E2900007B8
:1035C5000237C0124A4B603F14606714700302361D
:1035D5005714700302367F14700302369F2405606A
:1035E500030236C49003B1124863FBC0001248447D
:1035F500D00012493C9003B1124648EC3340030217
:1036050036C49003B180219003B5124863FBC00016
:10361500124844D0001249739003B5124648EC3362
:1036250040030236C49003B5128DD8000000000295
:1036350036C49003B9124863FBC000124844D00059
:103645001249AB9003B9124648EC3350729003B956
:10365500801E9003BD124863FBC000124844D00091
:10366500124A049003BD124648EC3350529003BDF4
:10367500128DD8000000000236C49003C1124863C1
:10368500FBC000124844D000124A399003C11246CB
:1036950048EC33502A9003C1801E9003C51248633D
:1036A500FBC000124844D000124AC19003C512461F
:1036B50048EC33500A9003C5128DD800000000E491
:1036C500F516305A030237C5900009124B61900078
:1036D5000A0237C0124A4B603714605A14607214DC
:1036E50070030237791470030237942405600302CE
:1036F50037B49003B11248639003B11247A5900304
:10370500B1124648EC3340030237B49003B1801C34
:103715009003B51248639003B51247A59003B512FF
:103725004648EC3340030237B49003B5128DD800F8
:103735000000000237B49003B91248639003B91230
:1037450047C89003B9124648EC3350639003B980DB
:10375500199003BD1248639003BD1247C89003BD7D
:10376500124648EC3350489003BD128DD800000036
:10377500000237B49003C11248639003C11247EBAE
:103785009003C1124648EC3350259003C18019902F
:1037950003C51248639003C51247EB9003C5124653
:1037A50048EC33500A9003C5128DD800000000E4A0
:1037B500F516205A0B124B5E90000D7420128CC525
:0137C50022E1
:10002600E50864057002F508124DB4124A4E7003D5
:1000360002014B1470030202D514700302045F140C
:1000460070030205E91470030207732405600302B6
:1000560009111244D41248B4C004C005C006C00732
:1000660012463F124623D003D002D001D0001246DA
:1000760095124632E47B0A12463290024E1246022E
:100086001248B4C004C005C006C00712463F124657
:1000960023D003D002D001D0001246951246321268
:1000A60046381246231248B4C004C005C006C0072D
:1000B60012463F12462CD003D002D001D000124681
:1000C60095124632E47B0A12463290025112463BA2
:1000D6001246231248B4C004C005C006C007124623
:1000E6003F12462CD003D002D001D0001246951202
:1000F6004632124B0712463E12462C12465B128DB2
:100106002FC004C005C006C0077B0212464112BAC2
:10011600E2D003D002D001D000124695124632E456
:100126007B0A124632124B0E12463E12462C1246DD
:100136005B128D2FC004C005C006C007124A63902B
:10014600037D0208FA1248FA12465B9003841246AF
:100156000F1249BD12463212465490038412460FBE
:10016600E47B64124632E47B0A124632124B421298
:10017600465A90038412460FE47B0A124632E47B09
:100186000A124632124B4912465A90038412460FFF
:10019600E47B0A124632124B5012465A90038412DE
:1001A600460F1248B4C004C005C006C00712465B1D
:1001B600900384124648124623D003D002D001D0C1
:1001C60000124695124632E47B0A124632124B2B37
:1001D60012465A90038412460F1248B4C004C00552
:1001E600C006C00712465B90038412464812462397
:1001F600D003D002D001D000124695124632124BDF
:100206005712465A9003841246481246231248B49F
:10021600C004C005C006C00712465B9003841246A0
:100226004812462CD003D002D001D00012469512B7
:100236004632E47B0A124632124B3212465A900379
:10024600841246481246231248B4C004C005C006AC
:10025600C00712465B90038412464812462CD00310
:10026600D002D001D000124695124632124B071228
:10027600465A90038412464812462C12465B128D4B
:100286002FC004C005C006C007124A63900384123B
:10029600464812BAE2D003D002D001D000124695E9
:1002A600124632E47B0A124632124B0E12465A901E
:1002B600038412464812462C12465B128D2FC00448
:1002C600C005C006C007124A639003840208FA12EA
:1002D600492E12465B90038912460F1249BD1246FB
:1002E6003212465490038912460FE47B641246325A
:1002F600E47B0A124632124B4212465A9003891286
:10030600460FE47B0A124632E47B0A124632124B4F
:100316004912465A90038912460FE47B0A12463266
:10032600124B5012465A90038912460F1248B4C017
:1003360004C005C006C00712465B900389124648F2
:10034600124623D003D002D001D0001246951246A1
:1003560032E47B0A124632124B2B12465A9003891C
:1003660012460F1248B4C004C005C006C0071246A4
:100376005B900389124648124623D003D002D0016F
:10038600D000124695124632124B5712465A900327
:10039600891246481246231248B4C004C005C00656
:1003A600C00712465B90038912464812462CD003BA
:1003B600D002D001D000124695124632E47B0A12D2
:1003C6004632124B3212465A90038912464812465A
:1003D600231248B4C004C005C006C00712465B908D
:1003E600038912464812462CD003D002D001D00011
:1003F600124695124632124B0712465A900389123C
:10040600464812462C12465B128D2FC004C005C00A
:1004160006C007124A6390038912464812BAE2D010
:1004260003D002D001D000124695124632E47B0A70
:10043600124632124B0E12465A9003891246481241
:10044600462C12465B128D2FC004C005C006C0079D
:10045600124A639003890208FA124A1612465B9002
:10046600039112460F1249BD1246321246549003AA
:100476009112460FE47B64124632E47B0A1246323E
:10048600124B4212465A90039112460FE47B0A120F
:100496004632E47B0A124632124B4912465A900300
:1004A6009112460FE47B0A124632124B5012465AFC
:1004B60090039112460F1248B4C004C005C006C08E
:1004C6000712465B900391124648124623D003D08A
:1004D60002D001D000124695124632E47B0A12463B
:1004E60032124B2B12465A90039112460F1248B401
:1004F600C004C005C006C00712465B9003911246B1
